output of running
sudo tcpdump -vvv -nn -i any -X -S dst 10.186.7.166 > tcpdump.txt
then running scanTarget(10, 25)
where 10.186.7.166 is the IP address of my computer


14:57:24.929403 IP (tos 0x0, ttl 64, id 40627, offset 0, flags [DF], proto TCP (6), length 60)
    10.186.7.166.36970 > 10.186.7.166.10: Flags [S], cksum 0x24ee (incorrect -> 0xef34), seq 2813609710, win 43690, options [mss 65495,sackOK,TS val 4100660154 ecr 0,nop,wscale 7], length 0
	0x0000:  4500 003c 9eb3 4000 4006 7749 0aba 07a6  E..<..@.@.wI....
	0x0010:  0aba 07a6 906a 000a a7b4 46ee 0000 0000  .....j....F.....
	0x0020:  a002 aaaa 24ee 0000 0204 ffd7 0402 080a  ....$...........
	0x0030:  f46b 1bba 0000 0000 0103 0307            .k..........
14:57:24.929425 IP (tos 0x0, ttl 64, id 49555, offset 0, flags [DF], proto TCP (6), length 40)
    10.186.7.166.10 > 10.186.7.166.36970: Flags [R.], cksum 0x0bf9 (correct), seq 0, ack 2813609711, win 0, length 0
	0x0000:  4500 0028 c193 4000 4006 547d 0aba 07a6  E..(..@.@.T}....
	0x0010:  0aba 07a6 000a 906a 0000 0000 a7b4 46ef  .......j......F.
	0x0020:  5014 0000 0bf9 0000                      P.......
14:57:24.929832 IP (tos 0x0, ttl 64, id 11485, offset 0, flags [DF], proto TCP (6), length 60)
    10.186.7.166.39000 > 10.186.7.166.11: Flags [S], cksum 0x24ee (incorrect -> 0x5386), seq 2380199043, win 43690, options [mss 65495,sackOK,TS val 4100660154 ecr 0,nop,wscale 7], length 0
	0x0000:  4500 003c 2cdd 4000 4006 e91f 0aba 07a6  E..<,.@.@.......
	0x0010:  0aba 07a6 9858 000b 8dde f483 0000 0000  .....X..........
	0x0020:  a002 aaaa 24ee 0000 0204 ffd7 0402 080a  ....$...........
	0x0030:  f46b 1bba 0000 0000 0103 0307            .k..........
14:57:24.929840 IP (tos 0x0, ttl 64, id 49556, offset 0, flags [DF], proto TCP (6), length 40)
    10.186.7.166.11 > 10.186.7.166.39000: Flags [R.], cksum 0x704a (correct), seq 0, ack 2380199044, win 0, length 0
	0x0000:  4500 0028 c194 4000 4006 547c 0aba 07a6  E..(..@.@.T|....
	0x0010:  0aba 07a6 000b 9858 0000 0000 8dde f484  .......X........
	0x0020:  5014 0000 704a 0000                      P...pJ..
14:57:24.929985 IP (tos 0x0, ttl 64, id 62029, offset 0, flags [DF], proto TCP (6), length 60)
    10.186.7.166.38950 > 10.186.7.166.12: Flags [S], cksum 0x24ee (incorrect -> 0xd716), seq 3572443667, win 43690, options [mss 65495,sackOK,TS val 4100660154 ecr 0,nop,wscale 7], length 0
	0x0000:  4500 003c f24d 4000 4006 23af 0aba 07a6  E..<.M@.@.#.....
	0x0010:  0aba 07a6 9826 000c d4ef 2a13 0000 0000  .....&....*.....
	0x0020:  a002 aaaa 24ee 0000 0204 ffd7 0402 080a  ....$...........
	0x0030:  f46b 1bba 0000 0000 0103 0307            .k..........
14:57:24.929993 IP (tos 0x0, ttl 64, id 49557, offset 0, flags [DF], proto TCP (6), length 40)
    10.186.7.166.12 > 10.186.7.166.38950: Flags [R.], cksum 0xf3da (correct), seq 0, ack 3572443668, win 0, length 0
	0x0000:  4500 0028 c195 4000 4006 547b 0aba 07a6  E..(..@.@.T{....
	0x0010:  0aba 07a6 000c 9826 0000 0000 d4ef 2a14  .......&......*.
	0x0020:  5014 0000 f3da 0000                      P.......
14:57:24.930083 IP (tos 0x0, ttl 64, id 36049, offset 0, flags [DF], proto TCP (6), length 60)
    10.186.7.166.60948 > 10.186.7.166.13: Flags [S], cksum 0x24ee (incorrect -> 0xfcf2), seq 782783631, win 43690, options [mss 65495,sackOK,TS val 4100660154 ecr 0,nop,wscale 7], length 0
	0x0000:  4500 003c 8cd1 4000 4006 892b 0aba 07a6  E..<..@.@..+....
	0x0010:  0aba 07a6 ee14 000d 2ea8 548f 0000 0000  ..........T.....
	0x0020:  a002 aaaa 24ee 0000 0204 ffd7 0402 080a  ....$...........
	0x0030:  f46b 1bba 0000 0000 0103 0307            .k..........
14:57:24.930088 IP (tos 0x0, ttl 64, id 49558, offset 0, flags [DF], proto TCP (6), length 40)
    10.186.7.166.13 > 10.186.7.166.60948: Flags [R.], cksum 0x19b7 (correct), seq 0, ack 782783632, win 0, length 0
	0x0000:  4500 0028 c196 4000 4006 547a 0aba 07a6  E..(..@.@.Tz....
	0x0010:  0aba 07a6 000d ee14 0000 0000 2ea8 5490  ..............T.
	0x0020:  5014 0000 19b7 0000                      P.......
14:57:24.930184 IP (tos 0x0, ttl 64, id 10332, offset 0, flags [DF], proto TCP (6), length 60)
    10.186.7.166.59792 > 10.186.7.166.14: Flags [S], cksum 0x24ee (incorrect -> 0xf8c7), seq 2615341058, win 43690, options [mss 65495,sackOK,TS val 4100660154 ecr 0,nop,wscale 7], length 0
	0x0000:  4500 003c 285c 4000 4006 eda0 0aba 07a6  E..<(\@.@.......
	0x0010:  0aba 07a6 e990 000e 9be2 f002 0000 0000  ................
	0x0020:  a002 aaaa 24ee 0000 0204 ffd7 0402 080a  ....$...........
	0x0030:  f46b 1bba 0000 0000 0103 0307            .k..........
14:57:24.930190 IP (tos 0x0, ttl 64, id 49559, offset 0, flags [DF], proto TCP (6), length 40)
    10.186.7.166.14 > 10.186.7.166.59792: Flags [R.], cksum 0x158c (correct), seq 0, ack 2615341059, win 0, length 0
	0x0000:  4500 0028 c197 4000 4006 5479 0aba 07a6  E..(..@.@.Ty....
	0x0010:  0aba 07a6 000e e990 0000 0000 9be2 f003  ................
	0x0020:  5014 0000 158c 0000                      P.......
14:57:24.930272 IP (tos 0x0, ttl 64, id 46148, offset 0, flags [DF], proto TCP (6), length 60)
    10.186.7.166.51334 > 10.186.7.166.15: Flags [S], cksum 0x24ee (incorrect -> 0xe550), seq 1414229018, win 43690, options [mss 65495,sackOK,TS val 4100660154 ecr 0,nop,wscale 7], length 0
	0x0000:  4500 003c b444 4000 4006 61b8 0aba 07a6  E..<.D@.@.a.....
	0x0010:  0aba 07a6 c886 000f 544b 6c1a 0000 0000  ........TKl.....
	0x0020:  a002 aaaa 24ee 0000 0204 ffd7 0402 080a  ....$...........
	0x0030:  f46b 1bba 0000 0000 0103 0307            .k..........
14:57:24.930276 IP (tos 0x0, ttl 64, id 49560, offset 0, flags [DF], proto TCP (6), length 40)
    10.186.7.166.15 > 10.186.7.166.51334: Flags [R.], cksum 0x0215 (correct), seq 0, ack 1414229019, win 0, length 0
	0x0000:  4500 0028 c198 4000 4006 5478 0aba 07a6  E..(..@.@.Tx....
	0x0010:  0aba 07a6 000f c886 0000 0000 544b 6c1b  ............TKl.
	0x0020:  5014 0000 0215 0000                      P.......
14:57:24.930364 IP (tos 0x0, ttl 64, id 36995, offset 0, flags [DF], proto TCP (6), length 60)
    10.186.7.166.51630 > 10.186.7.166.16: Flags [S], cksum 0x24ee (incorrect -> 0xb2eb), seq 2831370461, win 43690, options [mss 65495,sackOK,TS val 4100660155 ecr 0,nop,wscale 7], length 0
	0x0000:  4500 003c 9083 4000 4006 8579 0aba 07a6  E..<..@.@..y....
	0x0010:  0aba 07a6 c9ae 0010 a8c3 48dd 0000 0000  ..........H.....
	0x0020:  a002 aaaa 24ee 0000 0204 ffd7 0402 080a  ....$...........
	0x0030:  f46b 1bbb 0000 0000 0103 0307            .k..........
14:57:24.930371 IP (tos 0x0, ttl 64, id 49561, offset 0, flags [DF], proto TCP (6), length 40)
    10.186.7.166.16 > 10.186.7.166.51630: Flags [R.], cksum 0xcfb0 (correct), seq 0, ack 2831370462, win 0, length 0
	0x0000:  4500 0028 c199 4000 4006 5477 0aba 07a6  E..(..@.@.Tw....
	0x0010:  0aba 07a6 0010 c9ae 0000 0000 a8c3 48de  ..............H.
	0x0020:  5014 0000 cfb0 0000                      P.......
14:57:24.930456 IP (tos 0x0, ttl 64, id 56087, offset 0, flags [DF], proto TCP (6), length 60)
    10.186.7.166.41174 > 10.186.7.166.17: Flags [S], cksum 0x24ee (incorrect -> 0x0189), seq 3364946761, win 43690, options [mss 65495,sackOK,TS val 4100660155 ecr 0,nop,wscale 7], length 0
	0x0000:  4500 003c db17 4000 4006 3ae5 0aba 07a6  E..<..@.@.:.....
	0x0010:  0aba 07a6 a0d6 0011 c891 0349 0000 0000  ...........I....
	0x0020:  a002 aaaa 24ee 0000 0204 ffd7 0402 080a  ....$...........
	0x0030:  f46b 1bbb 0000 0000 0103 0307            .k..........
14:57:24.930461 IP (tos 0x0, ttl 64, id 49562, offset 0, flags [DF], proto TCP (6), length 40)
    10.186.7.166.17 > 10.186.7.166.41174: Flags [R.], cksum 0x1e4e (correct), seq 0, ack 3364946762, win 0, length 0
	0x0000:  4500 0028 c19a 4000 4006 5476 0aba 07a6  E..(..@.@.Tv....
	0x0010:  0aba 07a6 0011 a0d6 0000 0000 c891 034a  ...............J
	0x0020:  5014 0000 1e4e 0000                      P....N..
14:57:24.930541 IP (tos 0x0, ttl 64, id 3579, offset 0, flags [DF], proto TCP (6), length 60)
    10.186.7.166.57424 > 10.186.7.166.18: Flags [S], cksum 0x24ee (incorrect -> 0x0d6d), seq 2866140581, win 43690, options [mss 65495,sackOK,TS val 4100660155 ecr 0,nop,wscale 7], length 0
	0x0000:  4500 003c 0dfb 4000 4006 0802 0aba 07a6  E..<..@.@.......
	0x0010:  0aba 07a6 e050 0012 aad5 d5a5 0000 0000  .....P..........
	0x0020:  a002 aaaa 24ee 0000 0204 ffd7 0402 080a  ....$...........
	0x0030:  f46b 1bbb 0000 0000 0103 0307            .k..........
14:57:24.930547 IP (tos 0x0, ttl 64, id 49563, offset 0, flags [DF], proto TCP (6), length 40)
    10.186.7.166.18 > 10.186.7.166.57424: Flags [R.], cksum 0x2a32 (correct), seq 0, ack 2866140582, win 0, length 0
	0x0000:  4500 0028 c19b 4000 4006 5475 0aba 07a6  E..(..@.@.Tu....
	0x0010:  0aba 07a6 0012 e050 0000 0000 aad5 d5a6  .......P........
	0x0020:  5014 0000 2a32 0000                      P...*2..
14:57:24.930630 IP (tos 0x0, ttl 64, id 43852, offset 0, flags [DF], proto TCP (6), length 60)
    10.186.7.166.46392 > 10.186.7.166.19: Flags [S], cksum 0x24ee (incorrect -> 0xa08f), seq 2774364946, win 43690, options [mss 65495,sackOK,TS val 4100660155 ecr 0,nop,wscale 7], length 0
	0x0000:  4500 003c ab4c 4000 4006 6ab0 0aba 07a6  E..<.L@.@.j.....
	0x0010:  0aba 07a6 b538 0013 a55d 7312 0000 0000  .....8...]s.....
	0x0020:  a002 aaaa 24ee 0000 0204 ffd7 0402 080a  ....$...........
	0x0030:  f46b 1bbb 0000 0000 0103 0307            .k..........
14:57:24.930635 IP (tos 0x0, ttl 64, id 49564, offset 0, flags [DF], proto TCP (6), length 40)
    10.186.7.166.19 > 10.186.7.166.46392: Flags [R.], cksum 0xbd54 (correct), seq 0, ack 2774364947, win 0, length 0
	0x0000:  4500 0028 c19c 4000 4006 5474 0aba 07a6  E..(..@.@.Tt....
	0x0010:  0aba 07a6 0013 b538 0000 0000 a55d 7313  .......8.....]s.
	0x0020:  5014 0000 bd54 0000                      P....T..
14:57:24.930713 IP (tos 0x0, ttl 64, id 11243, offset 0, flags [DF], proto TCP (6), length 60)
    10.186.7.166.50320 > 10.186.7.166.20: Flags [S], cksum 0x24ee (incorrect -> 0x48bc), seq 1832186805, win 43690, options [mss 65495,sackOK,TS val 4100660155 ecr 0,nop,wscale 7], length 0
	0x0000:  4500 003c 2beb 4000 4006 ea11 0aba 07a6  E..<+.@.@.......
	0x0010:  0aba 07a6 c490 0014 6d34 f3b5 0000 0000  ........m4......
	0x0020:  a002 aaaa 24ee 0000 0204 ffd7 0402 080a  ....$...........
	0x0030:  f46b 1bbb 0000 0000 0103 0307            .k..........
14:57:24.930718 IP (tos 0x0, ttl 64, id 49565, offset 0, flags [DF], proto TCP (6), length 40)
    10.186.7.166.20 > 10.186.7.166.50320: Flags [R.], cksum 0x6581 (correct), seq 0, ack 1832186806, win 0, length 0
	0x0000:  4500 0028 c19d 4000 4006 5473 0aba 07a6  E..(..@.@.Ts....
	0x0010:  0aba 07a6 0014 c490 0000 0000 6d34 f3b6  ............m4..
	0x0020:  5014 0000 6581 0000                      P...e...
14:57:24.930797 IP (tos 0x0, ttl 64, id 39429, offset 0, flags [DF], proto TCP (6), length 60)
    10.186.7.166.41128 > 10.186.7.166.21: Flags [S], cksum 0x24ee (incorrect -> 0x27b6), seq 1669087835, win 43690, options [mss 65495,sackOK,TS val 4100660155 ecr 0,nop,wscale 7], length 0
	0x0000:  4500 003c 9a05 4000 4006 7bf7 0aba 07a6  E..<..@.@.{.....
	0x0010:  0aba 07a6 a0a8 0015 637c 425b 0000 0000  ........c|B[....
	0x0020:  a002 aaaa 24ee 0000 0204 ffd7 0402 080a  ....$...........
	0x0030:  f46b 1bbb 0000 0000 0103 0307            .k..........
14:57:24.930802 IP (tos 0x0, ttl 64, id 49566, offset 0, flags [DF], proto TCP (6), length 40)
    10.186.7.166.21 > 10.186.7.166.41128: Flags [R.], cksum 0x447b (correct), seq 0, ack 1669087836, win 0, length 0
	0x0000:  4500 0028 c19e 4000 4006 5472 0aba 07a6  E..(..@.@.Tr....
	0x0010:  0aba 07a6 0015 a0a8 0000 0000 637c 425c  ............c|B\
	0x0020:  5014 0000 447b 0000                      P...D{..
14:57:24.930880 IP (tos 0x0, ttl 64, id 14235, offset 0, flags [DF], proto TCP (6), length 60)
    10.186.7.166.40556 > 10.186.7.166.22: Flags [S], cksum 0x24ee (incorrect -> 0xa504), seq 989786053, win 43690, options [mss 65495,sackOK,TS val 4100660155 ecr 0,nop,wscale 7], length 0
	0x0000:  4500 003c 379b 4000 4006 de61 0aba 07a6  E..<7.@.@..a....
	0x0010:  0aba 07a6 9e6c 0016 3afe efc5 0000 0000  .....l..:.......
	0x0020:  a002 aaaa 24ee 0000 0204 ffd7 0402 080a  ....$...........
	0x0030:  f46b 1bbb 0000 0000 0103 0307            .k..........
14:57:24.930897 IP (tos 0x0, ttl 64, id 0, offset 0, flags [DF], proto TCP (6), length 60)
    10.186.7.166.22 > 10.186.7.166.40556: Flags [S.], cksum 0x24ee (incorrect -> 0x4db1), seq 2156250773, ack 989786054, win 43690, options [mss 65495,sackOK,TS val 4100660155 ecr 4100660155,nop,wscale 7], length 0
	0x0000:  4500 003c 0000 4000 4006 15fd 0aba 07a6  E..<..@.@.......
	0x0010:  0aba 07a6 0016 9e6c 8085 c695 3afe efc6  .......l....:...
	0x0020:  a012 aaaa 24ee 0000 0204 ffd7 0402 080a  ....$...........
	0x0030:  f46b 1bbb f46b 1bbb 0103 0307            .k...k......
14:57:24.930916 IP (tos 0x0, ttl 64, id 14236, offset 0, flags [DF], proto TCP (6), length 52)
    10.186.7.166.40556 > 10.186.7.166.22: Flags [.], cksum 0x24e6 (incorrect -> 0x1ff6), seq 989786054, ack 2156250774, win 342, options [nop,nop,TS val 4100660155 ecr 4100660155], length 0
	0x0000:  4500 0034 379c 4000 4006 de68 0aba 07a6  E..47.@.@..h....
	0x0010:  0aba 07a6 9e6c 0016 3afe efc6 8085 c696  .....l..:.......
	0x0020:  8010 0156 24e6 0000 0101 080a f46b 1bbb  ...V$........k..
	0x0030:  f46b 1bbb                                .k..
14:57:24.931047 IP (tos 0x0, ttl 64, id 14237, offset 0, flags [DF], proto TCP (6), length 52)
    10.186.7.166.40556 > 10.186.7.166.22: Flags [F.], cksum 0x24e6 (incorrect -> 0x1ff5), seq 989786054, ack 2156250774, win 342, options [nop,nop,TS val 4100660155 ecr 4100660155], length 0
	0x0000:  4500 0034 379d 4000 4006 de67 0aba 07a6  E..47.@.@..g....
	0x0010:  0aba 07a6 9e6c 0016 3afe efc6 8085 c696  .....l..:.......
	0x0020:  8011 0156 24e6 0000 0101 080a f46b 1bbb  ...V$........k..
	0x0030:  f46b 1bbb                                .k..
14:57:24.931073 IP (tos 0x0, ttl 64, id 47864, offset 0, flags [DF], proto TCP (6), length 60)
    10.186.7.166.45004 > 10.186.7.166.23: Flags [S], cksum 0x24ee (incorrect -> 0xab19), seq 2963759782, win 43690, options [mss 65495,sackOK,TS val 4100660155 ecr 0,nop,wscale 7], length 0
	0x0000:  4500 003c baf8 4000 4006 5b04 0aba 07a6  E..<..@.@.[.....
	0x0010:  0aba 07a6 afcc 0017 b0a7 62a6 0000 0000  ..........b.....
	0x0020:  a002 aaaa 24ee 0000 0204 ffd7 0402 080a  ....$...........
	0x0030:  f46b 1bbb 0000 0000 0103 0307            .k..........
14:57:24.931079 IP (tos 0x0, ttl 64, id 49567, offset 0, flags [DF], proto TCP (6), length 40)
    10.186.7.166.23 > 10.186.7.166.45004: Flags [R.], cksum 0xc7de (correct), seq 0, ack 2963759783, win 0, length 0
	0x0000:  4500 0028 c19f 4000 4006 5471 0aba 07a6  E..(..@.@.Tq....
	0x0010:  0aba 07a6 0017 afcc 0000 0000 b0a7 62a7  ..............b.
	0x0020:  5014 0000 c7de 0000                      P.......
14:57:24.931164 IP (tos 0x0, ttl 64, id 38141, offset 0, flags [DF], proto TCP (6), length 60)
    10.186.7.166.36938 > 10.186.7.166.24: Flags [S], cksum 0x24ee (incorrect -> 0xec40), seq 2768522403, win 43690, options [mss 65495,sackOK,TS val 4100660155 ecr 0,nop,wscale 7], length 0
	0x0000:  4500 003c 94fd 4000 4006 80ff 0aba 07a6  E..<..@.@.......
	0x0010:  0aba 07a6 904a 0018 a504 4ca3 0000 0000  .....J....L.....
	0x0020:  a002 aaaa 24ee 0000 0204 ffd7 0402 080a  ....$...........
	0x0030:  f46b 1bbb 0000 0000 0103 0307            .k..........
14:57:24.931170 IP (tos 0x0, ttl 64, id 49568, offset 0, flags [DF], proto TCP (6), length 40)
    10.186.7.166.24 > 10.186.7.166.36938: Flags [R.], cksum 0x0906 (correct), seq 0, ack 2768522404, win 0, length 0
	0x0000:  4500 0028 c1a0 4000 4006 5470 0aba 07a6  E..(..@.@.Tp....
	0x0010:  0aba 07a6 0018 904a 0000 0000 a504 4ca4  .......J......L.
	0x0020:  5014 0000 0906 0000                      P.......
14:57:24.931253 IP (tos 0x0, ttl 64, id 13762, offset 0, flags [DF], proto TCP (6), length 60)
    10.186.7.166.42736 > 10.186.7.166.25: Flags [S], cksum 0x24ee (incorrect -> 0x7ec1), seq 1524886940, win 43690, options [mss 65495,sackOK,TS val 4100660155 ecr 0,nop,wscale 7], length 0
	0x0000:  4500 003c 35c2 4000 4006 e03a 0aba 07a6  E..<5.@.@..:....
	0x0010:  0aba 07a6 a6f0 0019 5ae3 ed9c 0000 0000  ........Z.......
	0x0020:  a002 aaaa 24ee 0000 0204 ffd7 0402 080a  ....$...........
	0x0030:  f46b 1bbb 0000 0000 0103 0307            .k..........
14:57:24.931258 IP (tos 0x0, ttl 64, id 49569, offset 0, flags [DF], proto TCP (6), length 40)
    10.186.7.166.25 > 10.186.7.166.42736: Flags [R.], cksum 0x9b86 (correct), seq 0, ack 1524886941, win 0, length 0
	0x0000:  4500 0028 c1a1 4000 4006 546f 0aba 07a6  E..(..@.@.To....
	0x0010:  0aba 07a6 0019 a6f0 0000 0000 5ae3 ed9d  ............Z...
	0x0020:  5014 0000 9b86 0000                      P.......
14:57:24.933594 IP (tos 0x0, ttl 64, id 7880, offset 0, flags [DF], proto TCP (6), length 52)
    10.186.7.166.22 > 10.186.7.166.40556: Flags [.], cksum 0x24e6 (incorrect -> 0x1ff2), seq 2156250774, ack 989786055, win 342, options [nop,nop,TS val 4100660158 ecr 4100660155], length 0
	0x0000:  4500 0034 1ec8 4000 4006 f73c 0aba 07a6  E..4..@.@..<....
	0x0010:  0aba 07a6 0016 9e6c 8085 c696 3afe efc7  .......l....:...
	0x0020:  8010 0156 24e6 0000 0101 080a f46b 1bbe  ...V$........k..
	0x0030:  f46b 1bbb                                .k..
14:57:24.942823 IP (tos 0x0, ttl 64, id 7881, offset 0, flags [DF], proto TCP (6), length 93)
    10.186.7.166.22 > 10.186.7.166.40556: Flags [P.], cksum 0x250f (incorrect -> 0xf98f), seq 2156250774:2156250815, ack 989786055, win 342, options [nop,nop,TS val 4100660167 ecr 4100660155], length 41
	0x0000:  4500 005d 1ec9 4000 4006 f712 0aba 07a6  E..]..@.@.......
	0x0010:  0aba 07a6 0016 9e6c 8085 c696 3afe efc7  .......l....:...
	0x0020:  8018 0156 250f 0000 0101 080a f46b 1bc7  ...V%........k..
	0x0030:  f46b 1bbb 5353 482d 322e 302d 4f70 656e  .k..SSH-2.0-Open
	0x0040:  5353 485f 372e 3670 3120 5562 756e 7475  SSH_7.6p1.Ubuntu
	0x0050:  2d34 7562 756e 7475 302e 330d 0a         -4ubuntu0.3..
14:57:24.942843 IP (tos 0x0, ttl 64, id 49572, offset 0, flags [DF], proto TCP (6), length 40)
    10.186.7.166.40556 > 10.186.7.166.22: Flags [R], cksum 0xc1d8 (correct), seq 989786055, win 0, length 0
	0x0000:  4500 0028 c1a4 4000 4006 546c 0aba 07a6  E..(..@.@.Tl....
	0x0010:  0aba 07a6 9e6c 0016 3afe efc7 0000 0000  .....l..:.......
	0x0020:  5004 0000 c1d8 0000                      P.......

